{
  "_format": "hh-sol-artifact-1",
  "contractName": "CarbonCreditToken",
  "sourceName": "contracts/CarbonCreditToken.sol",
  "abi": [
    {
      "inputs": [
        {
          "internalType": "address",
          "name": "sender",
          "type": "address"
        },
        {
          "internalType": "uint256",
          "name": "balance",
          "type": "uint256"
        },
        {
          "internalType": "uint256",
          "name": "needed",
          "type": "uint256"
        },
        {
          "internalType": "uint256",
          "name": "tokenId",
          "type": "uint256"
        }
      ],
      "name": "ERC1155InsufficientBalance",
      "type": "error"
    },
    {
      "inputs": [
        {
          "internalType": "address",
          "name": "approver",
          "type": "address"
        }
      ],
      "name": "ERC1155InvalidApprover",
      "type": "error"
    },
    {
      "inputs": [
        {
          "internalType": "uint256",
          "name": "idsLength",
          "type": "uint256"
        },
        {
          "internalType": "uint256",
          "name": "valuesLength",
          "type": "uint256"
        }
      ],
      "name": "ERC1155InvalidArrayLength",
      "type": "error"
    },
    {
      "inputs": [
        {
          "internalType": "address",
          "name": "operator",
          "type": "address"
        }
      ],
      "name": "ERC1155InvalidOperator",
      "type": "error"
    },
    {
      "inputs": [
        {
          "internalType": "address",
          "name": "receiver",
          "type": "address"
        }
      ],
      "name": "ERC1155InvalidReceiver",
      "type": "error"
    },
    {
      "inputs": [
        {
          "internalType": "address",
          "name": "sender",
          "type": "address"
        }
      ],
      "name": "ERC1155InvalidSender",
      "type": "error"
    },
    {
      "inputs": [
        {
          "internalType": "address",
          "name": "operator",
          "type": "address"
        },
        {
          "internalType": "address",
          "name": "owner",
          "type": "address"
        }
      ],
      "name": "ERC1155MissingApprovalForAll",
      "type": "error"
    },
    {
      "inputs": [],
      "name": "InvalidInitialization",
      "type": "error"
    },
    {
      "inputs": [],
      "name": "NotInitializing",
      "type": "error"
    },
    {
      "inputs": [
        {
          "internalType": "address",
          "name": "owner",
          "type": "address"
        }
      ],
      "name": "OwnableInvalidOwner",
      "type": "error"
    },
    {
      "inputs": [
        {
          "internalType": "address",
          "name": "account",
          "type": "address"
        }
      ],
      "name": "OwnableUnauthorizedAccount",
      "type": "error"
    },
    {
      "inputs": [
        {
          "internalType": "uint256",
          "name": "value",
          "type": "uint256"
        },
        {
          "internalType": "uint256",
          "name": "length",
          "type": "uint256"
        }
      ],
      "name": "StringsInsufficientHexLength",
      "type": "error"
    },
    {
      "anonymous": false,
      "inputs": [
        {
          "indexed": true,
          "internalType": "address",
          "name": "account",
          "type": "address"
        },
        {
          "indexed": true,
          "internalType": "address",
          "name": "operator",
          "type": "address"
        },
        {
          "indexed": false,
          "internalType": "bool",
          "name": "approved",
          "type": "bool"
        }
      ],
      "name": "ApprovalForAll",
      "type": "event"
    },
    {
      "anonymous": false,
      "inputs": [
        {
          "indexed": false,
          "internalType": "address",
          "name": "operator",
          "type": "address"
        },
        {
          "indexed": false,
          "internalType": "string",
          "name": "func",
          "type": "string"
        },
        {
          "indexed": false,
          "internalType": "uint256[]",
          "name": "tokenIds",
          "type": "uint256[]"
        },
        {
          "indexed": false,
          "internalType": "string[]",
          "name": "creditCodes",
          "type": "string[]"
        }
      ],
      "name": "CarbonCreditUpdates",
      "type": "event"
    },
    {
      "anonymous": false,
      "inputs": [
        {
          "indexed": false,
          "internalType": "uint64",
          "name": "version",
          "type": "uint64"
        }
      ],
      "name": "Initialized",
      "type": "event"
    },
    {
      "anonymous": false,
      "inputs": [
        {
          "indexed": true,
          "internalType": "address",
          "name": "previousOwner",
          "type": "address"
        },
        {
          "indexed": true,
          "internalType": "address",
          "name": "newOwner",
          "type": "address"
        }
      ],
      "name": "OwnershipTransferred",
      "type": "event"
    },
    {
      "anonymous": false,
      "inputs": [
        {
          "indexed": true,
          "internalType": "address",
          "name": "operator",
          "type": "address"
        },
        {
          "indexed": true,
          "internalType": "address",
          "name": "from",
          "type": "address"
        },
        {
          "indexed": true,
          "internalType": "address",
          "name": "to",
          "type": "address"
        },
        {
          "indexed": false,
          "internalType": "uint256[]",
          "name": "ids",
          "type": "uint256[]"
        },
        {
          "indexed": false,
          "internalType": "uint256[]",
          "name": "values",
          "type": "uint256[]"
        }
      ],
      "name": "TransferBatch",
      "type": "event"
    },
    {
      "anonymous": false,
      "inputs": [
        {
          "indexed": true,
          "internalType": "address",
          "name": "operator",
          "type": "address"
        },
        {
          "indexed": true,
          "internalType": "address",
          "name": "from",
          "type": "address"
        },
        {
          "indexed": true,
          "internalType": "address",
          "name": "to",
          "type": "address"
        },
        {
          "indexed": false,
          "internalType": "uint256",
          "name": "id",
          "type": "uint256"
        },
        {
          "indexed": false,
          "internalType": "uint256",
          "name": "value",
          "type": "uint256"
        }
      ],
      "name": "TransferSingle",
      "type": "event"
    },
    {
      "anonymous": false,
      "inputs": [
        {
          "indexed": false,
          "internalType": "string",
          "name": "value",
          "type": "string"
        },
        {
          "indexed": true,
          "internalType": "uint256",
          "name": "id",
          "type": "uint256"
        }
      ],
      "name": "URI",
      "type": "event"
    },
    {
      "inputs": [
        {
          "internalType": "address",
          "name": "account",
          "type": "address"
        },
        {
          "internalType": "uint256",
          "name": "id",
          "type": "uint256"
        }
      ],
      "name": "balanceOf",
      "outputs": [
        {
          "internalType": "uint256",
          "name": "",
          "type": "uint256"
        }
      ],
      "stateMutability": "view",
      "type": "function"
    },
    {
      "inputs": [
        {
          "internalType": "address[]",
          "name": "accounts",
          "type": "address[]"
        },
        {
          "internalType": "uint256[]",
          "name": "ids",
          "type": "uint256[]"
        }
      ],
      "name": "balanceOfBatch",
      "outputs": [
        {
          "internalType": "uint256[]",
          "name": "",
          "type": "uint256[]"
        }
      ],
      "stateMutability": "view",
      "type": "function"
    },
    {
      "inputs": [
        {
          "internalType": "string[]",
          "name": "creditCodes",
          "type": "string[]"
        }
      ],
      "name": "batchAvailableCarbonCredits",
      "outputs": [
        {
          "internalType": "bool",
          "name": "",
          "type": "bool"
        },
        {
          "internalType": "string",
          "name": "",
          "type": "string"
        }
      ],
      "stateMutability": "nonpayable",
      "type": "function"
    },
    {
      "inputs": [
        {
          "internalType": "string[]",
          "name": "creditCodes",
          "type": "string[]"
        }
      ],
      "name": "batchCancelCarbonCredits",
      "outputs": [
        {
          "internalType": "bool",
          "name": "",
          "type": "bool"
        },
        {
          "internalType": "string",
          "name": "",
          "type": "string"
        }
      ],
      "stateMutability": "nonpayable",
      "type": "function"
    },
    {
      "inputs": [
        {
          "internalType": "string[]",
          "name": "creditCodes",
          "type": "string[]"
        }
      ],
      "name": "batchGetCarbonCredits",
      "outputs": [
        {
          "components": [
            {
              "internalType": "string",
              "name": "creditCode",
              "type": "string"
            },
            {
              "internalType": "uint256",
              "name": "vintageYear",
              "type": "uint256"
            },
            {
              "internalType": "uint256",
              "name": "tonCO2Quantity",
              "type": "uint256"
            },
            {
              "internalType": "string",
              "name": "status",
              "type": "string"
            },
            {
              "internalType": "string",
              "name": "ownerName",
              "type": "string"
            },
            {
              "internalType": "string",
              "name": "ownerDocument",
              "type": "string"
            },
            {
              "internalType": "uint256",
              "name": "createdAt",
              "type": "uint256"
            },
            {
              "internalType": "uint256",
              "name": "updatedAt",
              "type": "uint256"
            },
            {
              "internalType": "string",
              "name": "projectCode",
              "type": "string"
            }
          ],
          "internalType": "struct CarbonCreditToken.CarbonCreditTokenData[]",
          "name": "",
          "type": "tuple[]"
        }
      ],
      "stateMutability": "view",
      "type": "function"
    },
    {
      "inputs": [
        {
          "internalType": "address",
          "name": "to",
          "type": "address"
        },
        {
          "components": [
            {
              "internalType": "string",
              "name": "creditCode",
              "type": "string"
            },
            {
              "internalType": "uint256",
              "name": "vintageYear",
              "type": "uint256"
            },
            {
              "internalType": "uint256",
              "name": "tonCO2Quantity",
              "type": "uint256"
            },
            {
              "internalType": "string",
              "name": "status",
              "type": "string"
            },
            {
              "internalType": "string",
              "name": "ownerName",
              "type": "string"
            },
            {
              "internalType": "string",
              "name": "ownerDocument",
              "type": "string"
            },
            {
              "internalType": "uint256",
              "name": "createdAt",
              "type": "uint256"
            },
            {
              "internalType": "uint256",
              "name": "updatedAt",
              "type": "uint256"
            },
            {
              "internalType": "string",
              "name": "projectCode",
              "type": "string"
            }
          ],
          "internalType": "struct CarbonCreditToken.CarbonCreditTokenData[]",
          "name": "credits",
          "type": "tuple[]"
        }
      ],
      "name": "batchMintCarbonCredits",
      "outputs": [
        {
          "internalType": "bool",
          "name": "",
          "type": "bool"
        },
        {
          "internalType": "string",
          "name": "",
          "type": "string"
        }
      ],
      "stateMutability": "nonpayable",
      "type": "function"
    },
    {
      "inputs": [
        {
          "internalType": "string[]",
          "name": "creditCodes",
          "type": "string[]"
        }
      ],
      "name": "batchRetireCarbonCredits",
      "outputs": [
        {
          "internalType": "bool",
          "name": "",
          "type": "bool"
        },
        {
          "internalType": "string",
          "name": "",
          "type": "string"
        }
      ],
      "stateMutability": "nonpayable",
      "type": "function"
    },
    {
      "inputs": [
        {
          "internalType": "address",
          "name": "from",
          "type": "address"
        },
        {
          "internalType": "address",
          "name": "to",
          "type": "address"
        },
        {
          "internalType": "string[]",
          "name": "creditCodes",
          "type": "string[]"
        }
      ],
      "name": "batchTransferCarbonCredits",
      "outputs": [
        {
          "internalType": "bool",
          "name": "",
          "type": "bool"
        },
        {
          "internalType": "string",
          "name": "",
          "type": "string"
        }
      ],
      "stateMutability": "nonpayable",
      "type": "function"
    },
    {
      "inputs": [
        {
          "internalType": "string",
          "name": "creditCode",
          "type": "string"
        }
      ],
      "name": "getCarbonCredit",
      "outputs": [
        {
          "components": [
            {
              "internalType": "string",
              "name": "creditCode",
              "type": "string"
            },
            {
              "internalType": "uint256",
              "name": "vintageYear",
              "type": "uint256"
            },
            {
              "internalType": "uint256",
              "name": "tonCO2Quantity",
              "type": "uint256"
            },
            {
              "internalType": "string",
              "name": "status",
              "type": "string"
            },
            {
              "internalType": "string",
              "name": "ownerName",
              "type": "string"
            },
            {
              "internalType": "string",
              "name": "ownerDocument",
              "type": "string"
            },
            {
              "internalType": "uint256",
              "name": "createdAt",
              "type": "uint256"
            },
            {
              "internalType": "uint256",
              "name": "updatedAt",
              "type": "uint256"
            },
            {
              "internalType": "string",
              "name": "projectCode",
              "type": "string"
            }
          ],
          "internalType": "struct CarbonCreditToken.CarbonCreditTokenData",
          "name": "",
          "type": "tuple"
        }
      ],
      "stateMutability": "view",
      "type": "function"
    },
    {
      "inputs": [
        {
          "internalType": "string",
          "name": "baseURI",
          "type": "string"
        },
        {
          "internalType": "address",
          "name": "initialOwner",
          "type": "address"
        }
      ],
      "name": "initialize",
      "outputs": [],
      "stateMutability": "nonpayable",
      "type": "function"
    },
    {
      "inputs": [
        {
          "internalType": "address",
          "name": "account",
          "type": "address"
        },
        {
          "internalType": "address",
          "name": "operator",
          "type": "address"
        }
      ],
      "name": "isApprovedForAll",
      "outputs": [
        {
          "internalType": "bool",
          "name": "",
          "type": "bool"
        }
      ],
      "stateMutability": "view",
      "type": "function"
    },
    {
      "inputs": [],
      "name": "owner",
      "outputs": [
        {
          "internalType": "address",
          "name": "",
          "type": "address"
        }
      ],
      "stateMutability": "view",
      "type": "function"
    },
    {
      "inputs": [],
      "name": "renounceOwnership",
      "outputs": [],
      "stateMutability": "nonpayable",
      "type": "function"
    },
    {
      "inputs": [
        {
          "internalType": "address",
          "name": "from",
          "type": "address"
        },
        {
          "internalType": "address",
          "name": "to",
          "type": "address"
        },
        {
          "internalType": "uint256[]",
          "name": "ids",
          "type": "uint256[]"
        },
        {
          "internalType": "uint256[]",
          "name": "values",
          "type": "uint256[]"
        },
        {
          "internalType": "bytes",
          "name": "data",
          "type": "bytes"
        }
      ],
      "name": "safeBatchTransferFrom",
      "outputs": [],
      "stateMutability": "nonpayable",
      "type": "function"
    },
    {
      "inputs": [
        {
          "internalType": "address",
          "name": "from",
          "type": "address"
        },
        {
          "internalType": "address",
          "name": "to",
          "type": "address"
        },
        {
          "internalType": "uint256",
          "name": "id",
          "type": "uint256"
        },
        {
          "internalType": "uint256",
          "name": "value",
          "type": "uint256"
        },
        {
          "internalType": "bytes",
          "name": "data",
          "type": "bytes"
        }
      ],
      "name": "safeTransferFrom",
      "outputs": [],
      "stateMutability": "nonpayable",
      "type": "function"
    },
    {
      "inputs": [
        {
          "internalType": "address",
          "name": "operator",
          "type": "address"
        },
        {
          "internalType": "bool",
          "name": "approved",
          "type": "bool"
        }
      ],
      "name": "setApprovalForAll",
      "outputs": [],
      "stateMutability": "nonpayable",
      "type": "function"
    },
    {
      "inputs": [
        {
          "internalType": "bytes4",
          "name": "interfaceId",
          "type": "bytes4"
        }
      ],
      "name": "supportsInterface",
      "outputs": [
        {
          "internalType": "bool",
          "name": "",
          "type": "bool"
        }
      ],
      "stateMutability": "view",
      "type": "function"
    },
    {
      "inputs": [
        {
          "internalType": "address",
          "name": "newOwner",
          "type": "address"
        }
      ],
      "name": "transferOwnership",
      "outputs": [],
      "stateMutability": "nonpayable",
      "type": "function"
    },
    {
      "inputs": [
        {
          "internalType": "uint256",
          "name": "tokenId",
          "type": "uint256"
        }
      ],
      "name": "uri",
      "outputs": [
        {
          "internalType": "string",
          "name": "",
          "type": "string"
        }
      ],
      "stateMutability": "view",
      "type": "function"
    }
  ],
  "bytecode": "0x6080604052348015600f57600080fd5b50615a2b8061001f6000396000f3fe608060405234801561001057600080fd5b50600436106101205760003560e01c806380ce82ae116100ad578063e94109eb11610071578063e94109eb14610355578063e985e9c514610386578063f242432a146103b6578063f2fde38b146103d2578063f5627b73146103ee57610120565b806380ce82ae146102895780638da5cb5b146102ba578063a22cb465146102d8578063bd60d2d7146102f4578063d5d89c101461032457610120565b80633766a995116100f45780633766a995146101d15780634bdc2c09146102025780634e1273f414610233578063715018a6146102635780637ab4339d1461026d57610120565b8062fdd58e1461012557806301ffc9a7146101555780630e89341c146101855780632eb2c2d6146101b5575b600080fd5b61013f600480360381019061013a91906139cf565b61041e565b60405161014c9190613a1e565b60405180910390f35b61016f600480360381019061016a9190613a91565b610487565b60405161017c9190613ad9565b60405180910390f35b61019f600480360381019061019a9190613af4565b610569565b6040516101ac9190613bb1565b60405180910390f35b6101cf60048036038101906101ca9190613dd0565b6105a6565b005b6101eb60048036038101906101e69190613efa565b61064e565b6040516101f9929190613f6e565b60405180910390f35b61021c60048036038101906102179190613f9e565b610bd8565b60405161022a929190613f6e565b60405180910390f35b61024d600480360381019061024891906140ae565b610c65565b60405161025a91906141e4565b60405180910390f35b61026b610d6e565b005b610287600480360381019061028291906142a7565b610d82565b005b6102a3600480360381019061029e9190613f9e565b610fce565b6040516102b1929190613f6e565b60405180910390f35b6102c261105b565b6040516102cf9190614312565b60405180910390f35b6102f260048036038101906102ed9190614359565b611093565b005b61030e600480360381019061030991906143ef565b6110a9565b60405161031b9190614567565b60405180910390f35b61033e600480360381019061033991906145df565b61146e565b60405161034c929190613f6e565b60405180910390f35b61036f600480360381019061036a9190613f9e565b611a26565b60405161037d929190613f6e565b60405180910390f35b6103a0600480360381019061039b919061463f565b611ab3565b6040516103ad9190613ad9565b60405180910390f35b6103d060048036038101906103cb919061467f565b611b55565b005b6103ec60048036038101906103e79190614716565b611bfd565b005b61040860048036038101906104039190613f9e565b611c83565b60405161041591906148e6565b60405180910390f35b600080610429612142565b905080600001600084815260200190815260200160002060008573ffffffffffffffffffffffffffffffffffffffff1673ffffffffffffffffffffffffffffffffffffffff1681526020019081526020016000205491505092915050565b60007fd9b67a26000000000000000000000000000000000000000000000000000000007bffffffffffffffffffffffffffffffffffffffffffffffffffffffff1916827bffffffffffffffffffffffffffffffffffffffffffffffffffffffff1916148061055257507f0e89341c000000000000000000000000000000000000000000000000000000007bffffffffffffffffffffffffffffffffffffffffffffffffffffffff1916827bffffffffffffffffffffffffffffffffffffffffffffffffffffffff1916145b8061056257506105618261216a565b5b9050919050565b6060610574826121d4565b61057f836020612277565b604051602001610590929190614990565b6040516020818303038152906040529050919050565b60006105b06124bd565b90508073ffffffffffffffffffffffffffffffffffffffff168673ffffffffffffffffffffffffffffffffffffffff16141580156105f557506105f38682611ab3565b155b156106395780866040517fe237d9220000000000000000000000000000000000000000000000000000000081526004016106309291906149bf565b60405180910390fd5b61064686868686866124c5565b505050505050565b6000606061065a6125bd565b600073ffffffffffffffffffffffffffffffffffffffff168573ffffffffffffffffffffffffffffffffffffffff16036106c9576040517f08c379a00000000000000000000000000000000000000000000000000000000081526004016106c090614a34565b60405180910390fd5b6000848490501161070f576040517f08c379a000000000000000000000000000000000000000000000000000000000815260040161070690614aa0565b60405180910390fd5b3373ffffffffffffffffffffffffffffffffffffffff168673ffffffffffffffffffffffffffffffffffffffff16148061074f575061074e8633611ab3565b5b61078e576040517f08c379a000000000000000000000000000000000000000000000000000000000815260040161078590614b0c565b60405180910390fd5b60008484905067ffffffffffffffff8111156107ad576107ac613bd8565b5b6040519080825280602002602001820160405280156107db5781602001602082028036833780820191505090505b50905060008585905067ffffffffffffffff8111156107fd576107fc613bd8565b5b60405190808252806020026020018201604052801561082b5781602001602082028036833780820191505090505b50905060005b86869050811015610ad557600087878381811061085157610850614b2c565b5b90506020028101906108639190614b6a565b604051602001610874929190614bf2565b6040516020818303038152906040528051906020012060001c90506000806000838152602001908152602001600020905060008160000180546108b690614c3a565b9050116108f8576040517f08c379a00000000000000000000000000000000000000000000000000000000081526004016108ef90614cb7565b60405180910390fd5b60006109048c8461041e565b11610944576040517f08c379a000000000000000000000000000000000000000000000000000000000815260040161093b90614d23565b60405180910390fd5b6109d981600301805461095690614c3a565b80601f016020809104026020016040519081016040528092919081815260200182805461098290614c3a565b80156109cf5780601f106109a4576101008083540402835291602001916109cf565b820191906000526020600020905b8154815290600101906020018083116109b257829003601f168201915b5050505050612644565b610a18576040517f08c379a0000000000000000000000000000000000000000000000000000000008152600401610a0f90614d8f565b60405180910390fd5b610a358b8b8460016040518060200160405280600081525061271d565b6040518060400160405280600b81526020017f5452414e53464552524544000000000000000000000000000000000000000000815250816003019081610a7b9190614f5b565b5042816007018190555081858481518110610a9957610a98614b2c565b5b6020026020010181815250506001848481518110610aba57610ab9614b2c565b5b60200260200101818152505050508080600101915050610831565b508673ffffffffffffffffffffffffffffffffffffffff168873ffffffffffffffffffffffffffffffffffffffff163373ffffffffffffffffffffffffffffffffffffffff167f4a39dc06d4c0dbc64b70af90fd698a233a518aa5d07e595d983b8c0526c8f7fb8585604051610b4c92919061502d565b60405180910390a47f66a4c2c18fba229506741caf73107eb018305485f740327f11329a6535a83d2233838888604051610b899493929190615203565b60405180910390a160016040518060400160405280601381526020017f4261746368207472616e7366657220646f6e650000000000000000000000000081525093509350505094509492505050565b60006060610be46125bd565b610c5a84846040518060400160405280600981526020017f43414e43454c4c454400000000000000000000000000000000000000000000008152506040518060400160405280601881526020017f626174636843616e63656c436172626f6e437265646974730000000000000000815250612828565b915091509250929050565b60608151835114610cb157815183516040517f5b059991000000000000000000000000000000000000000000000000000000008152600401610ca892919061525d565b60405180910390fd5b6000835167ffffffffffffffff811115610cce57610ccd613bd8565b5b604051908082528060200260200182016040528015610cfc5781602001602082028036833780820191505090505b50905060005b8451811015610d6357610d39610d218287612be990919063ffffffff16565b610d348387612bfd90919063ffffffff16565b61041e565b828281518110610d4c57610d4b614b2c565b5b602002602001018181525050806001019050610d02565b508091505092915050565b610d766125bd565b610d806000612c11565b565b6000610d8c612ce8565b905060008160000160089054906101000a900460ff1615905060008260000160009054906101000a900467ffffffffffffffff1690506000808267ffffffffffffffff16148015610dda5750825b9050600060018367ffffffffffffffff16148015610e0f575060003073ffffffffffffffffffffffffffffffffffffffff163b145b905081158015610e1d575080155b15610e54576040517ff92ee8a900000000000000000000000000000000000000000000000000000000815260040160405180910390fd5b60018560000160006101000a81548167ffffffffffffffff021916908367ffffffffffffffff1602179055508315610ea45760018560000160086101000a81548160ff0219169083151502179055505b6000875111610ee8576040517f08c379a0000000000000000000000000000000000000000000000000000000008152600401610edf906152d2565b60405180910390fd5b600073ffffffffffffffffffffffffffffffffffffffff168673ffffffffffffffffffffffffffffffffffffffff1603610f57576040517f08c379a0000000000000000000000000000000000000000000000000000000008152600401610f4e9061533e565b60405180910390fd5b610f6087612cfc565b610f6986612d10565b8315610fc55760008560000160086101000a81548160ff0219169083151502179055507fc7f505b2f371ae2175ee4913f4499e1f2633a7b5936321eed1cdaeb6115181d26001604051610fbc91906153ad565b60405180910390a15b50505050505050565b60006060610fda6125bd565b61105084846040518060400160405280600981526020017f415641494c41424c4500000000000000000000000000000000000000000000008152506040518060400160405280601b81526020017f6261746368417661696c61626c65436172626f6e437265646974730000000000815250612828565b915091509250929050565b600080611066612d24565b90508060000160009054906101000a900473ffffffffffffffffffffffffffffffffffffffff1691505090565b6110a561109e6124bd565b8383612d4c565b5050565b6110b16138db565b600083836040516020016110c6929190614bf2565b6040516020818303038152906040528051906020012060001c90506000806000838152602001908152602001600020600001805461110390614c3a565b905011611145576040517f08c379a000000000000000000000000000000000000000000000000000000000815260040161113c90614cb7565b60405180910390fd5b6000808281526020019081526020016000206040518061012001604052908160008201805461117390614c3a565b80601f016020809104026020016040519081016040528092919081815260200182805461119f90614c3a565b80156111ec5780601f106111c1576101008083540402835291602001916111ec565b820191906000526020600020905b8154815290600101906020018083116111cf57829003601f168201915b50505050508152602001600182015481526020016002820154815260200160038201805461121990614c3a565b80601f016020809104026020016040519081016040528092919081815260200182805461124590614c3a565b80156112925780601f1061126757610100808354040283529160200191611292565b820191906000526020600020905b81548152906001019060200180831161127557829003601f168201915b505050505081526020016004820180546112ab90614c3a565b80601f01602080910402602001604051908101604052809291908181526020018280546112d790614c3a565b80156113245780601f106112f957610100808354040283529160200191611324565b820191906000526020600020905b81548152906001019060200180831161130757829003601f168201915b5050505050815260200160058201805461133d90614c3a565b80601f016020809104026020016040519081016040528092919081815260200182805461136990614c3a565b80156113b65780601f1061138b576101008083540402835291602001916113b6565b820191906000526020600020905b81548152906001019060200180831161139957829003601f168201915b5050505050815260200160068201548152602001600782015481526020016008820180546113e390614c3a565b80601f016020809104026020016040519081016040528092919081815260200182805461140f90614c3a565b801561145c5780601f106114315761010080835404028352916020019161145c565b820191906000526020600020905b81548152906001019060200180831161143f57829003601f168201915b50505050508152505091505092915050565b6000606061147a6125bd565b600084849050116114c0576040517f08c379a00000000000000000000000000000000000000000000000000000000081526004016114b790614aa0565b60405180910390fd5b60008484905067ffffffffffffffff8111156114df576114de613bd8565b5b60405190808252806020026020018201604052801561150d5781602001602082028036833780820191505090505b50905060008585905067ffffffffffffffff81111561152f5761152e613bd8565b5b60405190808252806020026020018201604052801561155d5781602001602082028036833780820191505090505b50905060005b86869050811015611960573687878381811061158257611581614b2c565b5b905060200281019061159491906153c8565b905060008180600001906115a89190614b6a565b9050116115ea576040517f08c379a00000000000000000000000000000000000000000000000000000000081526004016115e19061543d565b60405180910390fd5b6000816040013511611631576040517f08c379a0000000000000000000000000000000000000000000000000000000008152600401611628906154a9565b60405180910390fd5b60008180600001906116439190614b6a565b604051602001611654929190614bf2565b6040516020818303038152906040528051906020012060001c905060008060008381526020019081526020016000209050600081600001805461169690614c3a565b90500361178e576000836116a99061563f565b9050428160c0018181525050428160e00181815250508060008085815260200190815260200160002060008201518160000190816116e79190614f5b565b50602082015181600101556040820151816002015560608201518160030190816117119190614f5b565b5060808201518160040190816117279190614f5b565b5060a082015181600501908161173d9190614f5b565b5060c0820151816006015560e082015181600701556101008201518160080190816117689190614f5b565b509050506117888c84600160405180602001604052806000815250612ecb565b5061190f565b6118238160030180546117a090614c3a565b80601f01602080910402602001604051908101604052809291908181526020018280546117cc90614c3a565b80156118195780601f106117ee57610100808354040283529160200191611819565b820191906000526020600020905b8154815290600101906020018083116117fc57829003601f168201915b5050505050612644565b611862576040517f08c379a000000000000000000000000000000000000000000000000000000000815260040161185990614d8f565b60405180910390fd5b826020013581600101819055508260400135816002018190555082806060019061188c9190614b6a565b82600301918261189d92919061565d565b508280608001906118ae9190614b6a565b8260040191826118bf92919061565d565b50828060a001906118d09190614b6a565b8260050191826118e192919061565d565b50428160070181905550828061010001906118fc9190614b6a565b82600801918261190d92919061565d565b505b8186858151811061192357611922614b2c565b5b602002602001018181525050600185858151811061194457611943614b2c565b5b6020026020010181815250505050508080600101915050611563565b508673ffffffffffffffffffffffffffffffffffffffff16600073ffffffffffffffffffffffffffffffffffffffff163373ffffffffffffffffffffffffffffffffffffffff167f4a39dc06d4c0dbc64b70af90fd698a233a518aa5d07e595d983b8c0526c8f7fb85856040516119d892919061502d565b60405180910390a460016040518060400160405280600f81526020017f42617463682070726f6365737365640000000000000000000000000000000000815250935093505050935093915050565b60006060611a326125bd565b611aa884846040518060400160405280600781526020017f52455449524544000000000000000000000000000000000000000000000000008152506040518060400160405280601881526020017f6261746368526574697265436172626f6e437265646974730000000000000000815250612828565b915091509250929050565b600080611abe612142565b90508060010160008573ffffffffffffffffffffffffffffffffffffffff1673ffffffffffffffffffffffffffffffffffffffff16815260200190815260200160002060008473ffffffffffffffffffffffffffffffffffffffff1673ffffffffffffffffffffffffffffffffffffffff16815260200190815260200160002060009054906101000a900460ff1691505092915050565b6000611b5f6124bd565b90508073ffffffffffffffffffffffffffffffffffffffff168673ffffffffffffffffffffffffffffffffffffffff1614158015611ba45750611ba28682611ab3565b155b15611be85780866040517fe237d922000000000000000000000000000000000000000000000000000000008152600401611bdf9291906149bf565b60405180910390fd5b611bf5868686868661271d565b505050505050565b611c056125bd565b600073ffffffffffffffffffffffffffffffffffffffff168173ffffffffffffffffffffffffffffffffffffffff1603611c775760006040517f1e4fbdf7000000000000000000000000000000000000000000000000000000008152600401611c6e9190614312565b60405180910390fd5b611c8081612c11565b50565b606060008383905011611ccb576040517f08c379a0000000000000000000000000000000000000000000000000000000008152600401611cc290614aa0565b60405180910390fd5b60008383905067ffffffffffffffff811115611cea57611ce9613bd8565b5b604051908082528060200260200182016040528015611d2357816020015b611d106138db565b815260200190600190039081611d085790505b50905060005b84849050811015612137576000858583818110611d4957611d48614b2c565b5b9050602002810190611d5b9190614b6a565b604051602001611d6c929190614bf2565b6040516020818303038152906040528051906020012060001c905060008060008381526020019081526020016000206000018054611da990614c3a565b905011611deb576040517f08c379a0000000000000000000000000000000000000000000000000000000008152600401611de290614cb7565b60405180910390fd5b60008082815260200190815260200160002060405180610120016040529081600082018054611e1990614c3a565b80601f0160208091040260200160405190810160405280929190818152602001828054611e4590614c3a565b8015611e925780601f10611e6757610100808354040283529160200191611e92565b820191906000526020600020905b815481529060010190602001808311611e7557829003601f168201915b505050505081526020016001820154815260200160028201548152602001600382018054611ebf90614c3a565b80601f0160208091040260200160405190810160405280929190818152602001828054611eeb90614c3a565b8015611f385780601f10611f0d57610100808354040283529160200191611f38565b820191906000526020600020905b815481529060010190602001808311611f1b57829003601f168201915b50505050508152602001600482018054611f5190614c3a565b80601f0160208091040260200160405190810160405280929190818152602001828054611f7d90614c3a565b8015611fca5780601f10611f9f57610100808354040283529160200191611fca565b820191906000526020600020905b815481529060010190602001808311611fad57829003601f168201915b50505050508152602001600582018054611fe390614c3a565b80601f016020809104026020016040519081016040528092919081815260200182805461200f90614c3a565b801561205c5780601f106120315761010080835404028352916020019161205c565b820191906000526020600020905b81548152906001019060200180831161203f57829003601f168201915b50505050508152602001600682015481526020016007820154815260200160088201805461208990614c3a565b80601f01602080910402602001604051908101604052809291908181526020018280546120b590614c3a565b80156121025780601f106120d757610100808354040283529160200191612102565b820191906000526020600020905b8154815290600101906020018083116120e557829003601f168201915b50505050508152505083838151811061211e5761211d614b2c565b5b6020026020010181905250508080600101915050611d29565b508091505092915050565b60007f88be536d5240c274a3b1d3a1be54482fd9caa294f08c62a7cde569f49a3c4500905090565b60007f01ffc9a7000000000000000000000000000000000000000000000000000000007bffffffffffffffffffffffffffffffffffffffffffffffffffffffff1916827bffffffffffffffffffffffffffffffffffffffffffffffffffffffff1916149050919050565b606060006121e0612142565b90508060020180546121f190614c3a565b80601f016020809104026020016040519081016040528092919081815260200182805461221d90614c3a565b801561226a5780601f1061223f5761010080835404028352916020019161226a565b820191906000526020600020905b81548152906001019060200180831161224d57829003601f168201915b5050505050915050919050565b606060008390506000600284600261228f919061575c565b612299919061579e565b67ffffffffffffffff8111156122b2576122b1613bd8565b5b6040519080825280601f01601f1916602001820160405280156122e45781602001600182028036833780820191505090505b5090507f30000000000000000000000000000000000000000000000000000000000000008160008151811061231c5761231b614b2c565b5b60200101907effffffffffffffffffffffffffffffffffffffffffffffffffffffffffffff1916908160001a9053507f7800000000000000000000000000000000000000000000000000000000000000816001815181106123805761237f614b2c565b5b60200101907effffffffffffffffffffffffffffffffffffffffffffffffffffffffffffff1916908160001a905350600060018560026123c0919061575c565b6123ca919061579e565b90505b600181111561246a577f3031323334353637383961626364656600000000000000000000000000000000600f84166010811061240c5761240b614b2c565b5b1a60f81b82828151811061242357612422614b2c565b5b60200101907effffffffffffffffffffffffffffffffffffffffffffffffffffffffffffff1916908160001a905350600483901c925080612463906157d2565b90506123cd565b50600082146124b25784846040517fe22e27eb0000000000000000000000000000000000000000000000000000000081526004016124a992919061525d565b60405180910390fd5b809250505092915050565b600033905090565b600073ffffffffffffffffffffffffffffffffffffffff168473ffffffffffffffffffffffffffffffffffffffff16036125375760006040517f57f447ce00000000000000000000000000000000000000000000000000000000815260040161252e9190614312565b60405180910390fd5b600073ffffffffffffffffffffffffffffffffffffffff168573ffffffffffffffffffffffffffffffffffffffff16036125a95760006040517f01a835140000000000000000000000000000000000000000000000000000000081526004016125a09190614312565b60405180910390fd5b6125b68585858585612f64565b5050505050565b6125c56124bd565b73ffffffffffffffffffffffffffffffffffffffff166125e361105b565b73ffffffffffffffffffffffffffffffffffffffff1614612642576126066124bd565b6040517f118cdaa70000000000000000000000000000000000000000000000000000000081526004016126399190614312565b60405180910390fd5b565b6000612685826040518060400160405280600781526020017f5245544952454400000000000000000000000000000000000000000000000000815250613016565b1580156126ce57506126cc826040518060400160405280600981526020017f43414e43454c4c45440000000000000000000000000000000000000000000000815250613016565b155b80156127165750612714826040518060400160405280601081526020017f50454e44494e475f49535355414e434500000000000000000000000000000000815250613016565b155b9050919050565b600073ffffffffffffffffffffffffffffffffffffffff168473ffffffffffffffffffffffffffffffffffffffff160361278f5760006040517f57f447ce0000000000000000000000000000000000000000000000000000000081526004016127869190614312565b60405180910390fd5b600073ffffffffffffffffffffffffffffffffffffffff168573ffffffffffffffffffffffffffffffffffffffff16036128015760006040517f01a835140000000000000000000000000000000000000000000000000000000081526004016127f89190614312565b60405180910390fd5b60008061280e858561303e565b9150915061281f8787848487612f64565b50505050505050565b6000606060008686905011612872576040517f08c379a000000000000000000000000000000000000000000000000000000000815260040161286990614aa0565b60405180910390fd5b60008686905067ffffffffffffffff81111561289157612890613bd8565b5b6040519080825280602002602001820160405280156128bf5781602001602082028036833780820191505090505b50905060008787905067ffffffffffffffff8111156128e1576128e0613bd8565b5b60405190808252806020026020018201604052801561290f5781602001602082028036833780820191505090505b50905060005b88889050811015612ae257600089898381811061293557612934614b2c565b5b90506020028101906129479190614b6a565b604051602001612958929190614bf2565b6040516020818303038152906040528051906020012060001c905060008060008381526020019081526020016000209050600081600001805461299a90614c3a565b9050116129dc576040517f08c379a00000000000000000000000000000000000000000000000000000000081526004016129d390614cb7565b60405180910390fd5b612a718160030180546129ee90614c3a565b80601f0160208091040260200160405190810160405280929190818152602001828054612a1a90614c3a565b8015612a675780601f10612a3c57610100808354040283529160200191612a67565b820191906000526020600020905b815481529060010190602001808311612a4a57829003601f168201915b5050505050612644565b15612ad35788816003019081612a879190614f5b565b5042816007018190555081858481518110612aa557612aa4614b2c565b5b6020026020010181815250506001848481518110612ac657612ac5614b2c565b5b6020026020010181815250505b50508080600101915050612915565b50600073ffffffffffffffffffffffffffffffffffffffff16600073ffffffffffffffffffffffffffffffffffffffff163373ffffffffffffffffffffffffffffffffffffffff167f4a39dc06d4c0dbc64b70af90fd698a233a518aa5d07e595d983b8c0526c8f7fb8585604051612b5b92919061502d565b60405180910390a47f66a4c2c18fba229506741caf73107eb018305485f740327f11329a6535a83d223386848b8b604051612b9a9594939291906157fb565b60405180910390a160016040518060400160405280601481526020017f426174636820737461747573207570646174656400000000000000000000000081525093509350505094509492505050565b600060208202602084010151905092915050565b600060208202602084010151905092915050565b6000612c1b612d24565b905060008160000160009054906101000a900473ffffffffffffffffffffffffffffffffffffffff169050828260000160006101000a81548173ffffffffffffffffffffffffffffffffffffffff021916908373ffffffffffffffffffffffffffffffffffffffff1602179055508273ffffffffffffffffffffffffffffffffffffffff168173ffffffffffffffffffffffffffffffffffffffff167f8be0079c531659141344cd1fd0a4f28419497f9722a3daafe3b4186f6b6457e060405160405180910390a3505050565b600080612cf361306e565b90508091505090565b612d04613099565b612d0d816130d9565b50565b612d18613099565b612d21816130ed565b50565b60007f9016d09d72d40fdae2fd8ceac6b6234c7706214fd39c1cd1e609a0528c199300905090565b6000612d56612142565b9050600073ffffffffffffffffffffffffffffffffffffffff168373ffffffffffffffffffffffffffffffffffffffff1603612dca5760006040517fced3e100000000000000000000000000000000000000000000000000000000008152600401612dc19190614312565b60405180910390fd5b818160010160008673ffffffffffffffffffffffffffffffffffffffff1673ffffffffffffffffffffffffffffffffffffffff16815260200190815260200160002060008573ffffffffffffffffffffffffffffffffffffffff1673ffffffffffffffffffffffffffffffffffffffff16815260200190815260200160002060006101000a81548160ff0219169083151502179055508273ffffffffffffffffffffffffffffffffffffffff168473ffffffffffffffffffffffffffffffffffffffff167f17307eab39ab6107e8899845ad3d59bd9653f200f220920489ca2b5937696c3184604051612ebd9190613ad9565b60405180910390a350505050565b600073ffffffffffffffffffffffffffffffffffffffff168473ffffffffffffffffffffffffffffffffffffffff1603612f3d5760006040517f57f447ce000000000000000000000000000000000000000000000000000000008152600401612f349190614312565b60405180910390fd5b600080612f4a858561303e565b91509150612f5c600087848487612f64565b505050505050565b612f7085858585613173565b600073ffffffffffffffffffffffffffffffffffffffff168473ffffffffffffffffffffffffffffffffffffffff161461300f576000612fae6124bd565b90506001845103612ffe576000612fcf600086612bfd90919063ffffffff16565b90506000612fe7600086612bfd90919063ffffffff16565b9050612ff7838989858589613531565b505061300d565b61300c8187878787876136e5565b5b505b5050505050565b600081518351148015613036575081805190602001208380519060200120145b905092915050565b60608060405191506001825283602083015260408201905060018152826020820152604081016040529250929050565b60007ff0c57e16840df040f15088dc2f81fe391c3923bec73e23a9662efc9c229c6a0060001b905090565b6130a1613899565b6130d7576040517fd7e6bcf800000000000000000000000000000000000000000000000000000000815260040160405180910390fd5b565b6130e1613099565b6130ea816138b9565b50565b6130f5613099565b600073ffffffffffffffffffffffffffffffffffffffff168173ffffffffffffffffffffffffffffffffffffffff16036131675760006040517f1e4fbdf700000000000000000000000000000000000000000000000000000000815260040161315e9190614312565b60405180910390fd5b61317081612c11565b50565b600061317d612142565b905081518351146131c957825182516040517f5b0599910000000000000000000000000000000000000000000000000000000081526004016131c092919061525d565b60405180910390fd5b60006131d36124bd565b905060005b84518110156133eb5760006131f68287612bfd90919063ffffffff16565b9050600061320d8387612bfd90919063ffffffff16565b9050600073ffffffffffffffffffffffffffffffffffffffff168973ffffffffffffffffffffffffffffffffffffffff161461334057600085600001600084815260200190815260200160002060008b73ffffffffffffffffffffffffffffffffffffffff1673ffffffffffffffffffffffffffffffffffffffff168152602001908152602001600020549050818110156132e557898183856040517f03dee4c50000000000000000000000000000000000000000000000000000000081526004016132dc9493929190615857565b60405180910390fd5b81810386600001600085815260200190815260200160002060008c73ffffffffffffffffffffffffffffffffffffffff1673ffffffffffffffffffffffffffffffffffffffff16815260200190815260200160002081905550505b600073ffffffffffffffffffffffffffffffffffffffff168873ffffffffffffffffffffffffffffffffffffffff16146133de578085600001600084815260200190815260200160002060008a73ffffffffffffffffffffffffffffffffffffffff1673ffffffffffffffffffffffffffffffffffffffff16815260200190815260200160002060008282546133d6919061579e565b925050819055505b50508060010190506131d8565b5060018451036134aa57600061340b600086612bfd90919063ffffffff16565b90506000613423600086612bfd90919063ffffffff16565b90508673ffffffffffffffffffffffffffffffffffffffff168873ffffffffffffffffffffffffffffffffffffffff168473ffffffffffffffffffffffffffffffffffffffff167fc3d58168c5ae7397731d063d5bbf3d657854427343f4c083240f7aacaa2d0f62858560405161349b92919061525d565b60405180910390a45050613529565b8473ffffffffffffffffffffffffffffffffffffffff168673ffffffffffffffffffffffffffffffffffffffff168273ffffffffffffffffffffffffffffffffffffffff167f4a39dc06d4c0dbc64b70af90fd698a233a518aa5d07e595d983b8c0526c8f7fb878760405161352092919061502d565b60405180910390a45b505050505050565b60008473ffffffffffffffffffffffffffffffffffffffff163b11156136dd578373ffffffffffffffffffffffffffffffffffffffff1663f23a6e6187878686866040518663ffffffff1660e01b81526004016135929594939291906158f1565b6020604051808303816000875af19250505080156135ce57506040513d601f19601f820116820180604052508101906135cb9190615960565b60015b613652573d80600081146135fe576040519150601f19603f3d011682016040523d82523d6000602084013e613603565b606091505b50600081510361364a57846040517f57f447ce0000000000000000000000000000000000000000000000000000000081526004016136419190614312565b60405180910390fd5b805181602001fd5b63f23a6e6160e01b7bffffffffffffffffffffffffffffffffffffffffffffffffffffffff1916817bffffffffffffffffffffffffffffffffffffffffffffffffffffffff1916146136db57846040517f57f447ce0000000000000000000000000000000000000000000000000000000081526004016136d29190614312565b60405180910390fd5b505b505050505050565b60008473ffffffffffffffffffffffffffffffffffffffff163b1115613891578373ffffffffffffffffffffffffffffffffffffffff1663bc197c8187878686866040518663ffffffff1660e01b815260040161374695949392919061598d565b6020604051808303816000875af192505050801561378257506040513d601f19601f8201168201806040525081019061377f9190615960565b60015b613806573d80600081146137b2576040519150601f19603f3d011682016040523d82523d6000602084013e6137b7565b606091505b5060008151036137fe57846040517f57f447ce0000000000000000000000000000000000000000000000000000000081526004016137f59190614312565b60405180910390fd5b805181602001fd5b63bc197c8160e01b7bffffffffffffffffffffffffffffffffffffffffffffffffffffffff1916817bffffffffffffffffffffffffffffffffffffffffffffffffffffffff19161461388f57846040517f57f447ce0000000000000000000000000000000000000000000000000000000081526004016138869190614312565b60405180910390fd5b505b505050505050565b60006138a3612ce8565b60000160089054906101000a900460ff16905090565b60006138c3612142565b9050818160020190816138d69190614f5b565b505050565b6040518061012001604052806060815260200160008152602001600081526020016060815260200160608152602001606081526020016000815260200160008152602001606081525090565b6000604051905090565b600080fd5b600080fd5b600073ffffffffffffffffffffffffffffffffffffffff82169050919050565b60006139668261393b565b9050919050565b6139768161395b565b811461398157600080fd5b50565b6000813590506139938161396d565b92915050565b6000819050919050565b6139ac81613999565b81146139b757600080fd5b50565b6000813590506139c9816139a3565b92915050565b600080604083850312156139e6576139e5613931565b5b60006139f485828601613984565b9250506020613a05858286016139ba565b9150509250929050565b613a1881613999565b82525050565b6000602082019050613a336000830184613a0f565b92915050565b60007fffffffff0000000000000000000000000000000000000000000000000000000082169050919050565b613a6e81613a39565b8114613a7957600080fd5b50565b600081359050613a8b81613a65565b92915050565b600060208284031215613aa757613aa6613931565b5b6000613ab584828501613a7c565b91505092915050565b60008115159050919050565b613ad381613abe565b82525050565b6000602082019050613aee6000830184613aca565b92915050565b600060208284031215613b0a57613b09613931565b5b6000613b18848285016139ba565b91505092915050565b600081519050919050565b600082825260208201905092915050565b60005b83811015613b5b578082015181840152602081019050613b40565b60008484015250505050565b6000601f19601f8301169050919050565b6000613b8382613b21565b613b8d8185613b2c565b9350613b9d818560208601613b3d565b613ba681613b67565b840191505092915050565b60006020820190508181036000830152613bcb8184613b78565b905092915050565b600080fd5b7f4e487b7100000000000000000000000000000000000000000000000000000000600052604160045260246000fd5b613c1082613b67565b810181811067ffffffffffffffff82111715613c2f57613c2e613bd8565b5b80604052505050565b6000613c42613927565b9050613c4e8282613c07565b919050565b600067ffffffffffffffff821115613c6e57613c6d613bd8565b5b602082029050602081019050919050565b600080fd5b6000613c97613c9284613c53565b613c38565b90508083825260208201905060208402830185811115613cba57613cb9613c7f565b5b835b81811015613ce35780613ccf88826139ba565b845260208401935050602081019050613cbc565b5050509392505050565b600082601f830112613d0257613d01613bd3565b5b8135613d12848260208601613c84565b91505092915050565b600080fd5b600067ffffffffffffffff821115613d3b57613d3a613bd8565b5b613d4482613b67565b9050602081019050919050565b82818337600083830152505050565b6000613d73613d6e84613d20565b613c38565b905082815260208101848484011115613d8f57613d8e613d1b565b5b613d9a848285613d51565b509392505050565b600082601f830112613db757613db6613bd3565b5b8135613dc7848260208601613d60565b91505092915050565b600080600080600060a08688031215613dec57613deb613931565b5b6000613dfa88828901613984565b9550506020613e0b88828901613984565b945050604086013567ffffffffffffffff811115613e2c57613e2b613936565b5b613e3888828901613ced565b935050606086013567ffffffffffffffff811115613e5957613e58613936565b5b613e6588828901613ced565b925050608086013567ffffffffffffffff811115613e8657613e85613936565b5b613e9288828901613da2565b9150509295509295909350565b600080fd5b60008083601f840112613eba57613eb9613bd3565b5b8235905067ffffffffffffffff811115613ed757613ed6613e9f565b5b602083019150836020820283011115613ef357613ef2613c7f565b5b9250929050565b60008060008060608587031215613f1457613f13613931565b5b6000613f2287828801613984565b9450506020613f3387828801613984565b935050604085013567ffffffffffffffff811115613f5457613f53613936565b5b613f6087828801613ea4565b925092505092959194509250565b6000604082019050613f836000830185613aca565b8181036020830152613f958184613b78565b90509392505050565b60008060208385031215613fb557613fb4613931565b5b600083013567ffffffffffffffff811115613fd357613fd2613936565b5b613fdf85828601613ea4565b92509250509250929050565b600067ffffffffffffffff82111561400657614005613bd8565b5b602082029050602081019050919050565b600061402a61402584613feb565b613c38565b9050808382526020820190506020840283018581111561404d5761404c613c7f565b5b835b8181101561407657806140628882613984565b84526020840193505060208101905061404f565b5050509392505050565b600082601f83011261409557614094613bd3565b5b81356140a5848260208601614017565b91505092915050565b600080604083850312156140c5576140c4613931565b5b600083013567ffffffffffffffff8111156140e3576140e2613936565b5b6140ef85828601614080565b925050602083013567ffffffffffffffff8111156141105761410f613936565b5b61411c85828601613ced565b9150509250929050565b600081519050919050565b600082825260208201905092915050565b6000819050602082019050919050565b61415b81613999565b82525050565b600061416d8383614152565b60208301905092915050565b6000602082019050919050565b600061419182614126565b61419b8185614131565b93506141a683614142565b8060005b838110156141d75781516141be8882614161565b97506141c983614179565b9250506001810190506141aa565b5085935050505092915050565b600060208201905081810360008301526141fe8184614186565b905092915050565b600067ffffffffffffffff82111561422157614220613bd8565b5b61422a82613b67565b9050602081019050919050565b600061424a61424584614206565b613c38565b90508281526020810184848401111561426657614265613d1b565b5b614271848285613d51565b509392505050565b600082601f83011261428e5761428d613bd3565b5b813561429e848260208601614237565b91505092915050565b600080604083850312156142be576142bd613931565b5b600083013567ffffffffffffffff8111156142dc576142db613936565b5b6142e885828601614279565b92505060206142f985828601613984565b9150509250929050565b61430c8161395b565b82525050565b60006020820190506143276000830184614303565b92915050565b61433681613abe565b811461434157600080fd5b50565b6000813590506143538161432d565b92915050565b600080604083850312156143705761436f613931565b5b600061437e85828601613984565b925050602061438f85828601614344565b9150509250929050565b60008083601f8401126143af576143ae613bd3565b5b8235905067ffffffffffffffff8111156143cc576143cb613e9f565b5b6020830191508360018202830111156143e8576143e7613c7f565b5b9250929050565b6000806020838503121561440657614405613931565b5b600083013567ffffffffffffffff81111561442457614423613936565b5b61443085828601614399565b92509250509250929050565b600082825260208201905092915050565b600061445882613b21565b614462818561443c565b9350614472818560208601613b3d565b61447b81613b67565b840191505092915050565b60006101208301600083015184820360008601526144a4828261444d565b91505060208301516144b96020860182614152565b5060408301516144cc6040860182614152565b50606083015184820360608601526144e4828261444d565b915050608083015184820360808601526144fe828261444d565b91505060a083015184820360a0860152614518828261444d565b91505060c083015161452d60c0860182614152565b5060e083015161454060e0860182614152565b5061010083015184820361010086015261455a828261444d565b9150508091505092915050565b600060208201905081810360008301526145818184614486565b905092915050565b60008083601f84011261459f5761459e613bd3565b5b8235905067ffffffffffffffff8111156145bc576145bb613e9f565b5b6020830191508360208202830111156145d8576145d7613c7f565b5b9250929050565b6000806000604084860312156145f8576145f7613931565b5b600061460686828701613984565b935050602084013567ffffffffffffffff81111561462757614626613936565b5b61463386828701614589565b92509250509250925092565b6000806040838503121561465657614655613931565b5b600061466485828601613984565b925050602061467585828601613984565b9150509250929050565b600080600080600060a0868803121561469b5761469a613931565b5b60006146a988828901613984565b95505060206146ba88828901613984565b94505060406146cb888289016139ba565b93505060606146dc888289016139ba565b925050608086013567ffffffffffffffff8111156146fd576146fc613936565b5b61470988828901613da2565b9150509295509295909350565b60006020828403121561472c5761472b613931565b5b600061473a84828501613984565b91505092915050565b600081519050919050565b600082825260208201905092915050565b6000819050602082019050919050565b600061012083016000830151848203600086015261478d828261444d565b91505060208301516147a26020860182614152565b5060408301516147b56040860182614152565b50606083015184820360608601526147cd828261444d565b915050608083015184820360808601526147e7828261444d565b91505060a083015184820360a0860152614801828261444d565b91505060c083015161481660c0860182614152565b5060e083015161482960e0860182614152565b50610100830151848203610100860152614843828261444d565b9150508091505092915050565b600061485c838361476f565b905092915050565b6000602082019050919050565b600061487c82614743565b614886818561474e565b9350836020820285016148988561475f565b8060005b858110156148d457848403895281516148b58582614850565b94506148c083614864565b925060208a0199505060018101905061489c565b50829750879550505050505092915050565b600060208201905081810360008301526149008184614871565b905092915050565b600081905092915050565b600061491e82613b21565b6149288185614908565b9350614938818560208601613b3d565b80840191505092915050565b7f2e6a736f6e000000000000000000000000000000000000000000000000000000600082015250565b600061497a600583614908565b915061498582614944565b600582019050919050565b600061499c8285614913565b91506149a88284614913565b91506149b38261496d565b91508190509392505050565b60006040820190506149d46000830185614303565b6149e16020830184614303565b9392505050565b7f496e76616c696420726563697069656e74000000000000000000000000000000600082015250565b6000614a1e601183613b2c565b9150614a29826149e8565b602082019050919050565b60006020820190508181036000830152614a4d81614a11565b9050919050565b7f4e6f206372656469747300000000000000000000000000000000000000000000600082015250565b6000614a8a600a83613b2c565b9150614a9582614a54565b602082019050919050565b60006020820190508181036000830152614ab981614a7d565b9050919050565b7f4e6f74206f776e65722f617070726f7665640000000000000000000000000000600082015250565b6000614af6601283613b2c565b9150614b0182614ac0565b602082019050919050565b60006020820190508181036000830152614b2581614ae9565b9050919050565b7f4e487b7100000000000000000000000000000000000000000000000000000000600052603260045260246000fd5b600080fd5b600080fd5b600080fd5b60008083356001602003843603038112614b8757614b86614b5b565b5b80840192508235915067ffffffffffffffff821115614ba957614ba8614b60565b5b602083019250600182023603831315614bc557614bc4614b65565b5b509250929050565b6000614bd98385614908565b9350614be6838584613d51565b82840190509392505050565b6000614bff828486614bcd565b91508190509392505050565b7f4e487b7100000000000000000000000000000000000000000000000000000000600052602260045260246000fd5b60006002820490506001821680614c5257607f821691505b602082108103614c6557614c64614c0b565b5b50919050565b7f546f6b656e206e6f742065786973740000000000000000000000000000000000600082015250565b6000614ca1600f83613b2c565b9150614cac82614c6b565b602082019050919050565b60006020820190508181036000830152614cd081614c94565b9050919050565b7f53656e646572206e6f20746f6b656e0000000000000000000000000000000000600082015250565b6000614d0d600f83613b2c565b9150614d1882614cd7565b602082019050919050565b60006020820190508181036000830152614d3c81614d00565b9050919050565b7f496e76616c696420737461747573000000000000000000000000000000000000600082015250565b6000614d79600e83613b2c565b9150614d8482614d43565b602082019050919050565b60006020820190508181036000830152614da881614d6c565b9050919050565b60008190508160005260206000209050919050565b60006020601f8301049050919050565b600082821b905092915050565b600060088302614e117fffffffffffffffffffffffffffffffffffffffffffffffffffffffffffffffff82614dd4565b614e1b8683614dd4565b95508019841693508086168417925050509392505050565b6000819050919050565b6000614e58614e53614e4e84613999565b614e33565b613999565b9050919050565b6000819050919050565b614e7283614e3d565b614e86614e7e82614e5f565b848454614de1565b825550505050565b600090565b614e9b614e8e565b614ea6818484614e69565b505050565b5b81811015614eca57614ebf600082614e93565b600181019050614eac565b5050565b601f821115614f0f57614ee081614daf565b614ee984614dc4565b81016020851015614ef8578190505b614f0c614f0485614dc4565b830182614eab565b50505b505050565b600082821c905092915050565b6000614f3260001984600802614f14565b1980831691505092915050565b6000614f4b8383614f21565b9150826002028217905092915050565b614f6482613b21565b67ffffffffffffffff811115614f7d57614f7c613bd8565b5b614f878254614c3a565b614f92828285614ece565b600060209050601f831160018114614fc55760008415614fb3578287015190505b614fbd8582614f3f565b865550615025565b601f198416614fd386614daf565b60005b82811015614ffb57848901518255600182019150602085019450602081019050614fd6565b868310156150185784890151615014601f891682614f21565b8355505b6001600288020188555050505b505050505050565b600060408201905081810360008301526150478185614186565b9050818103602083015261505b8184614186565b90509392505050565b7f62617463685472616e73666572436172626f6e43726564697473000000000000600082015250565b600061509a601a83613b2c565b91506150a582615064565b602082019050919050565b600082825260208201905092915050565b6000819050919050565b60006150d7838561443c565b93506150e4838584613d51565b6150ed83613b67565b840190509392505050565b60006151058484846150cb565b90509392505050565b600080fd5b600080fd5b600080fd5b6000808335600160200384360303811261513a57615139615118565b5b83810192508235915060208301925067ffffffffffffffff8211156151625761516161510e565b5b60018202360383131561517857615177615113565b5b509250929050565b6000602082019050919050565b600061519983856150b0565b9350836020840285016151ab846150c1565b8060005b878110156151f15784840389526151c6828461511d565b6151d18682846150f8565b95506151dc84615180565b935060208b019a5050506001810190506151af565b50829750879450505050509392505050565b60006080820190506152186000830187614303565b81810360208301526152298161508d565b9050818103604083015261523d8186614186565b9050818103606083015261525281848661518d565b905095945050505050565b60006040820190506152726000830185613a0f565b61527f6020830184613a0f565b9392505050565b7f426173652055524920656d707479000000000000000000000000000000000000600082015250565b60006152bc600e83613b2c565b91506152c782615286565b602082019050919050565b600060208201905081810360008301526152eb816152af565b9050919050565b7f4f776e6572207a65726f00000000000000000000000000000000000000000000600082015250565b6000615328600a83613b2c565b9150615333826152f2565b602082019050919050565b600060208201905081810360008301526153578161531b565b9050919050565b6000819050919050565b600067ffffffffffffffff82169050919050565b600061539761539261538d8461535e565b614e33565b615368565b9050919050565b6153a78161537c565b82525050565b60006020820190506153c2600083018461539e565b92915050565b600082356001610120038336030381126153e5576153e4614b5b565b5b80830191505092915050565b7f43726564697420636f6465207265717569726564000000000000000000000000600082015250565b6000615427601483613b2c565b9150615432826153f1565b602082019050919050565b600060208201905081810360008301526154568161541a565b9050919050565b7f434f3220717479203e2030000000000000000000000000000000000000000000600082015250565b6000615493600b83613b2c565b915061549e8261545d565b602082019050919050565b600060208201905081810360008301526154c281615486565b9050919050565b600080fd5b600080fd5b600061012082840312156154ea576154e96154c9565b5b6154f5610120613c38565b9050600082013567ffffffffffffffff811115615515576155146154ce565b5b61552184828501614279565b6000830152506020615535848285016139ba565b6020830152506040615549848285016139ba565b604083015250606082013567ffffffffffffffff81111561556d5761556c6154ce565b5b61557984828501614279565b606083015250608082013567ffffffffffffffff81111561559d5761559c6154ce565b5b6155a984828501614279565b60808301525060a082013567ffffffffffffffff8111156155cd576155cc6154ce565b5b6155d984828501614279565b60a08301525060c06155ed848285016139ba565b60c08301525060e0615601848285016139ba565b60e08301525061010082013567ffffffffffffffff811115615626576156256154ce565b5b61563284828501614279565b6101008301525092915050565b600061564b36836154d3565b9050919050565b600082905092915050565b6156678383615652565b67ffffffffffffffff8111156156805761567f613bd8565b5b61568a8254614c3a565b615695828285614ece565b6000601f8311600181146156c457600084156156b2578287013590505b6156bc8582614f3f565b865550615724565b601f1984166156d286614daf565b60005b828110156156fa578489013582556001820191506020850194506020810190506156d5565b868310156157175784890135615713601f891682614f21565b8355505b6001600288020188555050505b50505050505050565b7f4e487b7100000000000000000000000000000000000000000000000000000000600052601160045260246000fd5b600061576782613999565b915061577283613999565b925082820261578081613999565b915082820484148315176157975761579661572d565b5b5092915050565b60006157a982613999565b91506157b483613999565b92508282019050808211156157cc576157cb61572d565b5b92915050565b60006157dd82613999565b9150600082036157f0576157ef61572d565b5b600182039050919050565b60006080820190506158106000830188614303565b81810360208301526158228187613b78565b905081810360408301526158368186614186565b9050818103606083015261584b81848661518d565b90509695505050505050565b600060808201905061586c6000830187614303565b6158796020830186613a0f565b6158866040830185613a0f565b6158936060830184613a0f565b95945050505050565b600081519050919050565b600082825260208201905092915050565b60006158c38261589c565b6158cd81856158a7565b93506158dd818560208601613b3d565b6158e681613b67565b840191505092915050565b600060a0820190506159066000830188614303565b6159136020830187614303565b6159206040830186613a0f565b61592d6060830185613a0f565b818103608083015261593f81846158b8565b90509695505050505050565b60008151905061595a81613a65565b92915050565b60006020828403121561597657615975613931565b5b60006159848482850161594b565b91505092915050565b600060a0820190506159a26000830188614303565b6159af6020830187614303565b81810360408301526159c18186614186565b905081810360608301526159d58185614186565b905081810360808301526159e981846158b8565b9050969550505050505056fea2646970667358221220230673ed4636ccd8a8d94b6ac6900e289905fc9dd9392076af44ee008a2e9ae164736f6c634300081c0033",
  "linkReferences": {},
  "deployedLinkReferences": {}
}